{
  "_format": "hh-sol-artifact-1",
  "contractName": "CommunityTokenFactory",
  "sourceName": "contracts/CommunityTokenFactory.sol",
  "abi": [
    {
      "anonymous": false,
      "inputs": [
        {
          "indexed": true,
          "internalType": "address",
          "name": "tokenAddress",
          "type": "address"
        },
        {
          "indexed": false,
          "internalType": "string",
          "name": "name",
          "type": "string"
        },
        {
          "indexed": false,
          "internalType": "string",
          "name": "symbol",
          "type": "string"
        },
        {
          "indexed": true,
          "internalType": "address",
          "name": "creator",
          "type": "address"
        }
      ],
      "name": "CommunityTokenCreated",
      "type": "event"
    },
    {
      "inputs": [
        {
          "internalType": "string",
          "name": "name",
          "type": "string"
        },
        {
          "internalType": "string",
          "name": "symbol",
          "type": "string"
        },
        {
          "internalType": "uint256",
          "name": "initialSupply",
          "type": "uint256"
        }
      ],
      "name": "createCommunityToken",
      "outputs": [
        {
          "internalType": "address",
          "name": "",
          "type": "address"
        }
      ],
      "stateMutability": "nonpayable",
      "type": "function"
    }
  ],
  "bytecode": "0x608060405234801561001057600080fd5b50611239806100206000396000f3fe608060405234801561001057600080fd5b506004361061002b5760003560e01c8063b5014dda14610030575b600080fd5b61004361003e3660046101a3565b61005f565b6040516001600160a01b03909116815260200160405180910390f35b60008084848433604051610072906100f3565b61007f9493929190610256565b604051809103906000f08015801561009b573d6000803e3d6000fd5b509050336001600160a01b0316816001600160a01b03167f4a769b01d760032b9e62334a66c597a99a80a37387f75f09b80e91707971cc0187876040516100e392919061029d565b60405180910390a3949350505050565b610f38806102cc83390190565b634e487b7160e01b600052604160045260246000fd5b600082601f83011261012757600080fd5b813567ffffffffffffffff8082111561014257610142610100565b604051601f8301601f19908116603f0116810190828211818310171561016a5761016a610100565b8160405283815286602085880101111561018357600080fd5b836020870160208301376000602085830101528094505050505092915050565b6000806000606084860312156101b857600080fd5b833567ffffffffffffffff808211156101d057600080fd5b6101dc87838801610116565b945060208601359150808211156101f257600080fd5b506101ff86828701610116565b925050604084013590509250925092565b6000815180845260005b818110156102365760208185018101518683018201520161021a565b506000602082860101526020601f19601f83011685010191505092915050565b6080815260006102696080830187610210565b828103602084015261027b8187610210565b604084019590955250506001600160a01b039190911660609091015292915050565b6040815260006102b06040830185610210565b82810360208401526102c28185610210565b9594505050505056fe60806040523480156200001157600080fd5b5060405162000f3838038062000f38833981016040819052620000349162000344565b808484600362000045838262000468565b50600462000054828262000468565b5050506001600160a01b0381166200008757604051631e4fbdf760e01b8152600060048201526024015b60405180910390fd5b6200009281620000bc565b50620000b281620000ac84670de0b6b3a76400006200054a565b6200010e565b5050505062000580565b600580546001600160a01b038381166001600160a01b0319831681179093556040519116919082907f8be0079c531659141344cd1fd0a4f28419497f9722a3daafe3b4186f6b6457e090600090a35050565b6001600160a01b0382166200013a5760405163ec442f0560e01b8152600060048201526024016200007e565b62000148600083836200014c565b5050565b6001600160a01b0383166200017b5780600260008282546200016f91906200056a565b90915550620001ef9050565b6001600160a01b03831660009081526020819052604090205481811015620001d05760405163391434e360e21b81526001600160a01b038516600482015260248101829052604481018390526064016200007e565b6001600160a01b03841660009081526020819052604090209082900390555b6001600160a01b0382166200020d576002805482900390556200022c565b6001600160a01b03821660009081526020819052604090208054820190555b816001600160a01b0316836001600160a01b03167fddf252ad1be2c89b69c2b068fc378daa952ba7f163c4a11628f55a4df523b3ef836040516200027291815260200190565b60405180910390a3505050565b634e487b7160e01b600052604160045260246000fd5b600082601f830112620002a757600080fd5b81516001600160401b0380821115620002c457620002c46200027f565b604051601f8301601f19908116603f01168101908282118183101715620002ef57620002ef6200027f565b816040528381526020925086838588010111156200030c57600080fd5b600091505b8382101562000330578582018301518183018401529082019062000311565b600093810190920192909252949350505050565b600080600080608085870312156200035b57600080fd5b84516001600160401b03808211156200037357600080fd5b620003818883890162000295565b955060208701519150808211156200039857600080fd5b50620003a78782880162000295565b60408701516060880151919550935090506001600160a01b0381168114620003ce57600080fd5b939692955090935050565b600181811c90821680620003ee57607f821691505b6020821081036200040f57634e487b7160e01b600052602260045260246000fd5b50919050565b601f8211156200046357600081815260208120601f850160051c810160208610156200043e5750805b601f850160051c820191505b818110156200045f578281556001016200044a565b5050505b505050565b81516001600160401b038111156200048457620004846200027f565b6200049c81620004958454620003d9565b8462000415565b602080601f831160018114620004d45760008415620004bb5750858301515b600019600386901b1c1916600185901b1785556200045f565b600085815260208120601f198616915b828110156200050557888601518255948401946001909101908401620004e4565b5085821015620005245787850151600019600388901b60f8161c191681555b5050505050600190811b01905550565b634e487b7160e01b600052601160045260246000fd5b808202811582820484141762000564576200056462000534565b92915050565b8082018082111562000564576200056462000534565b6109a880620005906000396000f3fe608060405234801561001057600080fd5b50600436106100f55760003560e01c8063715018a611610097578063a21deac711610066578063a21deac7146101eb578063a9059cbb146101fa578063dd62ed3e1461020d578063f2fde38b1461024657600080fd5b8063715018a6146101ab578063746d961e146101b55780638da5cb5b146101c857806395d89b41146101e357600080fd5b806323b872dd116100d357806323b872dd1461014d578063313ce5671461016057806337c5f1c41461016f57806370a082311461018257600080fd5b806306fdde03146100fa578063095ea7b31461011857806318160ddd1461013b575b600080fd5b610102610259565b60405161010f91906107f2565b60405180910390f35b61012b61012636600461085c565b6102eb565b604051901515815260200161010f565b6002545b60405190815260200161010f565b61012b61015b366004610886565b610305565b6040516012815260200161010f565b61012b61017d3660046108c2565b610329565b61013f6101903660046108c2565b6001600160a01b031660009081526020819052604090205490565b6101b36103ca565b005b6101b36101c336600461085c565b6103de565b6005546040516001600160a01b03909116815260200161010f565b6101026103f4565b61013f670de0b6b3a764000081565b61012b61020836600461085c565b610403565b61013f61021b3660046108e4565b6001600160a01b03918216600090815260016020908152604080832093909416825291909152205490565b6101b36102543660046108c2565b610411565b60606003805461026890610917565b80601f016020809104026020016040519081016040528092919081815260200182805461029490610917565b80156102e15780601f106102b6576101008083540402835291602001916102e1565b820191906000526020600020905b8154815290600101906020018083116102c457829003601f168201915b5050505050905090565b6000336102f981858561044f565b60019150505b92915050565b600033610313858285610461565b61031e8585856104df565b506001949350505050565b6001600160a01b038116600090815260208190526040812054670de0b6b3a7640000111561039e5760405162461bcd60e51b815260206004820152601c60248201527f496e73756666696369656e7420746f6b656e7320666f7220706f73740000000060448201526064015b60405180910390fd5b6103c2826103b46005546001600160a01b031690565b670de0b6b3a76400006104df565b506001919050565b6103d261053e565b6103dc600061056b565b565b6103e661053e565b6103f082826105bd565b5050565b60606004805461026890610917565b6000336102f98185856104df565b61041961053e565b6001600160a01b03811661044357604051631e4fbdf760e01b815260006004820152602401610395565b61044c8161056b565b50565b61045c83838360016105f3565b505050565b6001600160a01b0383811660009081526001602090815260408083209386168352929052205460001981146104d957818110156104ca57604051637dc7a0d960e11b81526001600160a01b03841660048201526024810182905260448101839052606401610395565b6104d9848484840360006105f3565b50505050565b6001600160a01b03831661050957604051634b637e8f60e11b815260006004820152602401610395565b6001600160a01b0382166105335760405163ec442f0560e01b815260006004820152602401610395565b61045c8383836106c8565b6005546001600160a01b031633146103dc5760405163118cdaa760e01b8152336004820152602401610395565b600580546001600160a01b038381166001600160a01b0319831681179093556040519116919082907f8be0079c531659141344cd1fd0a4f28419497f9722a3daafe3b4186f6b6457e090600090a35050565b6001600160a01b0382166105e75760405163ec442f0560e01b815260006004820152602401610395565b6103f0600083836106c8565b6001600160a01b03841661061d5760405163e602df0560e01b815260006004820152602401610395565b6001600160a01b03831661064757604051634a1406b160e11b815260006004820152602401610395565b6001600160a01b03808516600090815260016020908152604080832093871683529290522082905580156104d957826001600160a01b0316846001600160a01b03167f8c5be1e5ebec7d5bd14f71427d1e84f3dd0314c0f7b2291e5b200ac8c7c3b925846040516106ba91815260200190565b60405180910390a350505050565b6001600160a01b0383166106f35780600260008282546106e89190610951565b909155506107659050565b6001600160a01b038316600090815260208190526040902054818110156107465760405163391434e360e21b81526001600160a01b03851660048201526024810182905260448101839052606401610395565b6001600160a01b03841660009081526020819052604090209082900390555b6001600160a01b038216610781576002805482900390556107a0565b6001600160a01b03821660009081526020819052604090208054820190555b816001600160a01b0316836001600160a01b03167fddf252ad1be2c89b69c2b068fc378daa952ba7f163c4a11628f55a4df523b3ef836040516107e591815260200190565b60405180910390a3505050565b600060208083528351808285015260005b8181101561081f57858101830151858201604001528201610803565b506000604082860101526040601f19601f8301168501019250505092915050565b80356001600160a01b038116811461085757600080fd5b919050565b6000806040838503121561086f57600080fd5b61087883610840565b946020939093013593505050565b60008060006060848603121561089b57600080fd5b6108a484610840565b92506108b260208501610840565b9150604084013590509250925092565b6000602082840312156108d457600080fd5b6108dd82610840565b9392505050565b600080604083850312156108f757600080fd5b61090083610840565b915061090e60208401610840565b90509250929050565b600181811c9082168061092b57607f821691505b60208210810361094b57634e487b7160e01b600052602260045260246000fd5b50919050565b808201808211156102ff57634e487b7160e01b600052601160045260246000fdfea264697066735822122039f90af43f0ace2b7dea342633a4440a4a49b2688fb0842fd34749dd350ff03864736f6c63430008140033a264697066735822122007a080aae762fb411927dbe71a8683ae56a3e8ab39e1c0a6072787a159a206a564736f6c63430008140033",
  "linkReferences": {},
  "deployedLinkReferences": {}
}